:1000000000000120750300005D0300005F03000095
:1000100061030000630300006503000000000000AE
:100020000000000000000000000000006703000066
:1000300069030000000000006B0300006D03000076
:100040006F0300006F0300006F0300006F030000E8
:100050006F0300006F0300006F0300006F030000D8
:100060006F0300006F0300006F0300006F030000C8
:100070006F0300006F0300006F0300006F030000B8
:100080006F0300006F0300006F0300006F030000A8
:100090006F0300006F0300006F0300006F03000098
:1000A0006F0300006F0300006F0300006F03000088
:1000B000E10300006F0300000000000000000000EA
:1000C0006F0300006F0300006F0300006F03000068
:1000D0006F0300006F0300006F03000000000000CA
:1000E0000000000000000000000000000000000010
:1000F0000000000000000000000000000000000000
:1001000000000000000000000000000000000000EF
:1001100000000000000000000000000000000000DF
:1001200000000000000000000000000000000000CF
:1001300000000000000000000000000000000000BF
:1001400000000000000000000000000000000000AF
:10015000000000000000000000000000000000009F
:10016000000000000000000000000000000000008F
:10017000000000000000000000000000000000007F
:10018000000000000000000000000000000000006F
:10019000000000000000000000000000000000005F
:1001A000000000000000000000000000000000004F
:1001B000000000000000000000000000000000003F
:1001C000000000000000000000000000000000002F
:1001D000000000000000000000000000000000001F
:1001E000000000000000000000000000000000000F
:1001F00000000000000000000000000000000000FF
:10020000354936480A1A02D0072291438D463449AF
:1002100034480A1A06D00722914381F30988022242
:1002200082F3148830483149314A00F044F83148AB
:100230003149324A00F03FF831483249324A00F041
:100240003AF832483249334A00F035F832483349F7
:10025000334A00F030F833483349344A00F02BF881
:1002600033483449344A00F026F8344834490022EF
:1002700000F02CF833483449002200F027F83348C6
:100280003349091A082902DB002202604160314A21
:1002900090471F481F49884205D00268043003B4C4
:1002A000904703BCF7E700208646EC46002000217B
:1002B000294A9047FEE7884207D0521A05D00378B2
:1002C00001300B700131013AF9D17047884202D0F8
:1002D00002700130FAE770470000012000E00020C2
:1002E00000000120000001208C0700000000002019
:1002F00004000020D0030000D003000080070000AD
:100300008C07000000000020000000208007000093
:1003100080070000800700008007000080070000C1
:100320008007000080070000800700008C070000A5
:1003300090070000040000200400002004000020BA
:1003400018000020180000201800002018000020CD
:10035000182000209D030000D1030000FEE7FEE707
:10036000FEE7FEE7FEE7FEE7FEE7FEE7FEE7FEE765
:1003700000F002B8FFF7FCBF0F484FF007018843B9
:1003800085460E4880470E48016841F470010160BF
:10039000BFF34F8FBFF36F8FFFF732BF09480A4992
:1003A0000A4A884207D0521A05D0037801300B70F0
:1003B0000131013AF9D17047000001200105000028
:1003C00088ED00E080070000000000200000002011
:1003D00008B51121012000F021F830BFFDE7000031
:1003E0000C4BD3F81011012241B10021C3F81011B8
:1003F000DA60D3F81021002AFBD17047C3F814113A
:100400005A60D3F81421002AFBD1034B01221A6051
:10041000704700BF00C0014014000020204B18604E
:10042000204B1960204B012018604FF0A04300FAC8
:1004300001F2C3F81825C3F80C251C4B0022C3F8A1
:1004400060151421C3F80005C3F80425C3F80C2572
:10045000C3F808151649C3F814250968C3F8102510
:10046000C3F820151821C3F824151249C3F828250C
:10047000C3F82C250A80C3F840152821C3F8440589
:10048000C3F84815C3F84C250B4A4FF08051116052
:100490001022C3F804232022C3F80423704700BFAE
:1004A000100000200C0000201400002000C00140BB
:1004B000040000200800002000E100E04FF080531D
:1004C000D3F83001421C04BF4FF0704393F8E00FA3
:1004D000831F5842584170474FF0704393F8E02F04
:1004E000062A09D1D3F8E83FC3F30313033B032BD8
:1004F00002D8024AD05C704700207047880700008D
:1005000008B5FFF7DBFF40B14FF080538F4AD3F8B7
:100510002433C3F30423C2F84035FFF7DDFF10B1E5
:100520008B4B8C4A5A67FFF7C9FF48B14FF0805395
:100530004FF08042D3F84432C3F34233C2F83C3523
:10054000FFF7CAFF30B1844AD2F8FC3023F0807341
:10055000C2F8FC30FFF7B2FF40B14FF080430022F9
:10056000C3F80C21C3F81021C3F83825FFF7B4FFF6
:1005700020B14FF080430322C3F8A025FFF7ACFF62
:1005800060B1764B0522C3F810260122C3F88826F5
:100590000022C3F818263F22C3F814264FF08053D8
:1005A000D3F83021511C09BF4FF07043D3F83431D8
:1005B00093F8E02FD3F8E83F08BFC3F30313062AEC
:1005C0004DD1033B032B03D8654AD35C002B46D0A7
:1005D0004FF08052634BD2F80414C3F82015D2F8C0
:1005E0000814C3F82415D2F80C14C3F82815D2F84F
:1005F0001014C3F82C15D2F81414C3F83015D2F81F
:100600001814C3F83415D2F81C14C3F84015D2F8E6
:100610002014C3F84415D2F82414C3F84815D2F8AE
:100620002814C3F84C15D2F82C14C3F85015D2F87E
:100630003014C3F85415D2F83414C3F86015D2F846
:100640003814C3F86415D2F83C14C3F86815D2F80E
:100650004014C3F86C15D2F84424C3F87025FFF792
:100660002DFF48B14FF080534FF08042D3F85832FD
:1006700003F04F03C2F8E43EFFF720FF48B14FF00C
:100680008043D3F80024D20744BF6FF00102C3F8BF
:1006900000244FF08053D3F83021062A0ED1D3F82E
:1006A0003431033B032B02D82F4AD35C33B12F4A9A
:1006B000D2F83C3743F48063C2F83C37264AD2F87C
:1006C000883043F47003C2F88830BFF34F8FBFF314
:1006D0006F8F4FF01023D3F80022002A03DBD3F8EA
:1006E0000432002B2EDA224B0122C3F80425D3F862
:1006F0000024002AFBD04FF010221521C2F800126E
:10070000D3F80024002AFBD04FF010231522C3F8A1
:100710000422174BD3F80024002AFBD00022C3F890
:100720000425D3F80024002AFBD0BFF34F8F0A49D9
:10073000104BCA6802F4E0621343CB60BFF34F8FE3
:1007400000BFFDE70C4B0D4A1A6008BD00300140A8
:1007500000C007400DF0ADBA00ED00E000500040D1
:100760008007000000C00040840700000010004027
:1007700000E001400400FA05000000200090D003D2
:0C07800000000101000000010100000069
:04078C000090D00306
:040000030000037581
:00000001FF
